:100000000C9434000C9451000C9451000C94510049
:100010000C9451000C9451000C9451000C9451001C
:100020000C9451000C9451000C9451000C9451000C
:100030000C9451000C9451000C9451000C945100FC
:100040000C9451000C9451000C9451000C945100EC
:100050000C9451000C9451000C9451000C945100DC
:100060000C9451000C94510011241FBECFEFD8E026
:10007000DEBFCDBF11E0A0E0B1E0E2ECF1E002C0F4
:1000800005900D92A032B107D9F711E0A0E2B1E0DE
:1000900001C01D92A632B107E1F70E946A000C94DC
:1000A000DF000C9400001092C50083E38093C4002D
:1000B00088E18093C1008EE08093C2000895982F5C
:1000C000E0ECF0E0808185FFFDCF9093C60080E0FA
:1000D00090E00895CF92DF92EF92FF920F931F93DB
:1000E000DF93CF93CDB7DEB72E970FB6F894DEBF70
:1000F0000FBECDBF0E945300FE0131968EE0DF019E
:100100001D928A95E9F782E08C838FE590E09A87CB
:100110008987F0932301E093220180E091E00E941F
:10012000AA000F2EFEE0CF2EF1E0DF2EF02D0F2ED5
:10013000F0E1EF2EF7E2FF2EF02D08EC10E0C60103
:100140000E94AA009701C8010197F1F721503040A1
:10015000D1F7F5CF0F931F93CF93DF938C01E091ED
:100160002201F0912301838181FF21C0C0E0D0E012
:100170000DC0E0912201F091230120853185BF015E
:10018000F9010995892B11F0CFEFDFEFF80181918B
:100190008F01882371F7E0912201F09123012085DE
:1001A00031858AE0BF01F9010995892B11F0CFEF64
:1001B000DFEFCE01DF91CF911F910F910895F89459
:0201C000FFCF6F
:1001C20068656C6C6F2C20776F726C6420006661BE
:1001D2006E74696D6F746520616C697665212000AB
:00000001FF
